:020000040800F2
:100000000817002021020008EF15000885130008DA
:10001000ED150008970300085119000800000000C2
:10002000000000000000000000000000890100083E
:10003000B503000800000000CD010008F915000814
:100040003B0200083B0200083B0200083B0200089C
:100050003B0200083B0200083B0200083B0200088C
:100060003B0200083B0200083B0200083B0200087C
:100070003B0200083B0200083B020008A9030008FD
:100080003B0200083B0200083B0200083B0200085C
:100090003B0200083B0200083B0200083B0200084C
:1000A0003B0200083B0200083B0200083B0200083C
:1000B000711600083B0200083B0200083B020008E2
:1000C0003B0200083B0200083B0200083B0200081C
:1000D0003B0200083B0200083B0200083B0200080C
:1000E0003B0200083B0200083B02000800F002F857
:1000F00000F03AF80AA090E8000C82448344AAF188
:100100000107DA4501D100F02FF8AFF2090EBAE885
:100110000F0013F0010F18BFFB1A43F0010318473B
:100120002025000040250000103A24BF78C878C17F
:10013000FAD8520724BF30C830C144BF04680C60ED
:10014000704700000023002400250026103A28BF35
:1001500078C1FBD8520728BF30C148BF0B60704739
:100160001FB51FBD10B510BD00F0D6F81146FFF742
:10017000F7FF01F0FEFB00F0F4F803B4FFF7F2FF25
:1001800003BC00F0F9F80000224B19680868B0E8D9
:10019000F00F80F30988BFF36F8F4FF0000080F3FA
:1001A00011884EF00D0E70470000000006480068F0
:1001B000006880F3088862B661B6BFF34F8FBFF363
:1001C0006F8F00DF00BF00BF08ED00E0EFF3098094
:1001D000BFF36F8F0F4B1A6820E9F00F106008B55E
:1001E0004FF0500080F31188BFF34F8FBFF36F8F34
:1001F00001F0B2FF4FF0000080F31188BDE8084025
:1002000019680868B0E8F00F80F30988BFF36F8FB2
:10021000704700BF30000020EFF3058070470000FA
:100220000948804709480047FEE7FEE7FEE7FEE78A
:10023000FEE7FEE7FEE7FEE7FEE7FEE704480549C6
:10024000054A064B704700006F160008ED000008D5
:1002500008110020081700200813002008130020B0
:1002600010B5203AC0F00B80B1E81850203AA0E851
:100270001850B1E81850A0E81850BFF4F5AF5FEA85
:10028000027C24BFB1E81850A0E8185044BF18C938
:1002900018C0BDE810405FEA827C24BF51F8043BDF
:1002A00040F8043B08BF7047D20728BF31F8023B33
:1002B00048BF11F8012B28BF20F8023B48BF00F8C7
:1002C000012B70474FF0000200B513469446964646
:1002D000203922BFA0E80C50A0E80C50B1F1200159
:1002E000BFF4F7AF090728BFA0E80C5048BF0CC007
:1002F0005DF804EB890028BF40F8042B08BF704765
:1003000048BF20F8022B11F0804F18BF00F8012BD6
:100310007047704770477047754600F029F8AE4641
:1003200005006946534620F00700854618B020B501
:10033000FFF784FFBDE820404FF000064FF00007B4
:100340004FF000084FF0000B21F00701AC46ACE87D
:10035000C009ACE8C009ACE8C009ACE8C0098D46EA
:1003600070470446AFF300802046FFF706FF000009
:1003700000487047A410002001491820ABBEFEE7DA
:10038000260002007047012001F00AFBFBE7012074
:1003900001F006FBFBE7FEE7012001F001FBFBE7B4
:1003A000012001F0FDFAFBE7014800F00BB8000066
:1003B0002C030020704772B6FEE7012001F0F0FA2E
:1003C000FBE700002DE9F05FC16B0C6801680B686A
:1003D000D0F840C0042202FA0CF2494DDFF824A103
:1003E000494E4A4FDFF828B1DFF828E122422CD0ED
:1003F0005A072AD50A68920603D40A6822F0040232
:100400000A600168A94201D1042219E0514501D1D5
:10041000402215E0B14202D14FF4806210E0B942AF
:1004200002D14FF480420BE0594502D14FF48022B3
:1004300006E0714502D14FF4800201E04FF0806286
:100440002F4908394A60C16A3BE04FF0020808FAB8
:100450000CF818EA040F4FF000094FF0010235D0F4
:100460005FEA837832D50B689B0605D40B6823F0CE
:100470000A030B6080F821200168A94201D1022201
:1004800019E0514501D1202215E0B14202D14FF4CB
:10049000007210E0B94202D14FF400520BE059450E
:1004A00002D14FF4003206E0714502D14FF4001240
:1004B00001E04FF00072124908394A6080F820903C
:1004C000816A00291AD0BDE8F05F0847082505FABF
:1004D0000CF5254212D01B0710D50B6823F00E0334
:1004E0000B6090F84010C36B02FA01F1596082630F
:1004F00080F8212080F82090016BE2E7BDE8F09FB2
:10050000080002401C00024030000240440002404B
:10051000580002406C00024030B528B308C81349A7
:1005200014221944B1FBF2F18900C16310498163BF
:10053000022141771A6843F6F0718A43D0E900142A
:100540002143D0E902452C432143046921434469F6
:100550002143846921431143196000214163012231
:1005600042770177084630BD012030BDF8FFFDBF5E
:10057000000002402DE9F84FDFF8B891002409F19E
:10058000040A0AF1040B23460F270BF1040EC9E0FD
:100590000125A5402A40AA427DD1674ED1F804C06A
:1005A000ACEB0608B44532D014DCBCF1030F3AD0F2
:1005B00009DCBCF1000F2AD0BCF1010F1CD0BCF14A
:1005C000020F31D11DE0BCF1110F17D0BCF1120F99
:1005D0002AD119E0B8F5881F19D006DCB8F5803F9C
:1005E00015D0B8F5801F1FD111E0B8F5001F0ED04F
:1005F000B8F5041F18D10AE0CB6815E0CB681B1DC5
:1006000012E0CB6808330FE0CB680C330CE08B684A
:100610002BB1012B4FF0080303D0456104E0042304
:1006200002E0056100E00023FF2A01D8064601E050
:1006300000F104064FEA840501D9A5F12005D6F89A
:10064000008007FA05FC28EA0C0803FA05F548EAD9
:100650000508C6F800804D68ED0062D5374DAE69DB
:1006600046F00106AE61AD6924F0030605F0010510
:100670000095334D06EB050CDCF80850A607360F45
:1006800007FA06F825EA0805DFF8B880404503D1E7
:100690004FF0000817E044E0DFF8AC80404502D19D
:1006A0004FF001080FE0DFF8A480404502D14FF081
:1006B000020808E0DFF89880404502D14FF00308B7
:1006C00001E04FF0040808FA06F848EA0508CCF8FB
:1006D00008804D68D9F80060ED034D4601D51643FA
:1006E00000E096432E604D68DAF80060AD03554691
:1006F00001D5164300E096432E604D68DBF800609C
:10070000ED025D4601D5164300E096432E604D682C
:10071000DEF80060AD02754601D5164300E0964351
:100720002E60641C0D682A46E5407FF431AFBDE8B9
:10073000F88F00000004014000001110001002407A
:100740000000014000080140000C01400010014081
:10075000001401400AB1016170470904FBE7000081
:10076000014880687047000020000020024881682E
:10077000027811448160704720000020074810B5BE
:10078000016841F010010160032000F07BF80F20A8
:1007900000F006F800F024F8002010BD0020024010
:1007A00070B50D4D04464FF47A712878B1FBF0F026
:1007B0000A490968B1FBF0F000F0F2FA48B9102CD0
:1007C00007D200222146501E00F03CF800206C6049
:1007D00070BD012070BD0000200000202C00002012
:1007E0000F4808B5816941F001018161816901F01B
:1007F00001010091C16941F08051C161C0690022CD
:1008000000F0805000900F21901E00F01BF805486A
:10081000416821F0E06141F00071416008BD0000D5
:100820000010024000000140002809DB00F01F0218
:10083000012191404009800000F1E020C0F8001142
:1008400070470000F0B40E4B1B680C46C3F3022344
:10085000C3F10705042D00D90425191D072901D26C
:10086000002300E0DB1E012606FA05F1491E2140A7
:1008700099409E40761E16403143F0BC01F069B8A5
:100880000CED00E0064900F0070208684FF6FF0390
:10089000184040EA0220034A1043086070470000F5
:1008A0000CED00E00000FA052DE9F0470F460500C9
:1008B00061D0434E306800F00700B84209D230687A
:1008C00020F0070038433060306800F00700B8427D
:1008D00051D128683B4C810712D5400703D5606889
:1008E00040F4E06060602878000703D5606840F459
:1008F000605060606068A96820F0F00008436060A4
:100900002878C00728D06868012810D021680228FC
:1009100010D0890700292EDA616821F00301014314
:100920006160FFF71DFF804641F288390DE02168C4
:100930008903EFE78901EDE7FFF712FFA0EB08015C
:10094000494502D90320BDE8F0876068696800F076
:100950000C00B0EB810FEFD1306800F00700B84217
:100960000BD9306820F0070038433060306800F061
:100970000700B84201D00120E5E72878400705D5F7
:100980006068E96820F4E060084360602878000748
:1009900006D56068296920F4605040EAC1006060B3
:1009A00000F038F86168084AC1F30311515CC8408F
:1009B0000649086006480068FFF7F2FE0020C2E71B
:1009C0000020024000100240C02500082C0000203A
:1009D000240000200448054900684968044AC1F31E
:1009E0000221515CC84070472C00002000100240DA
:1009F000D02500080448054900684968044AC1F345
:100A0000C221515CC84070472C00002000100240F9
:100A1000D025000812A185B00FC98DE80F0014A0E1
:100A2000144A006804905168134801F00C03042B29
:100A300010D0082B0ED1C1F38343C9031DF8030066
:100A40000AD5516804AAC1F34041515C0A4A504397
:100A5000B0FBF1F005B0704708494843FAE70000E1
:100A600002030405060708090A0B0C0D0E0F1010EF
:100A7000010200000010024000127A0000093D004F
:100A80002DE9F84F040070D02078C04DC00749D040
:100A90006868C0F38100012807D06868C0F381004E
:100AA000022809D16868C00306D52868800339D5B3
:100AB00060680028E7D035E06068B0F5803F0BD073
:100AC00010B1B0F5A02F11D0286820F48030286034
:100AD000286820F4802002E0286840F480302860F4
:100AE000606890B1FFF73CFE06460AE0286840F4D3
:100AF00080202860F0E700BFFFF732FE801B6428EB
:100B000073D828688003F7D50CE0FFF729FE064666
:100B100005E000BFFFF724FE801B6428F0D828689A
:100B20008003F7D420789A4E80074FF001094FF0E8
:100B3000000839D5686810F00C0F07D06868C0F35A
:100B40008100022809D16868C00306D4286880079C
:100B500014D52069012808D110E02069B0B1C6F889
:100B60000090FFF7FDFD074605E00AE1FFF7F8FDFD
:100B7000C01B0228C4D828688007F7D52868616997
:100B800020F0F80040EAC10028600DE0C6F80080BF
:100B9000FFF7E6FD074604E0FFF7E2FDC01B022871
:100BA00023D828688007F7D4207800072CD5794807
:100BB000A169D9B1C0F80090FFF7D2FD074604E063
:100BC000FFF7CEFDC01B02280FD8686A8007F7D553
:100BD00071484FF4FA510068B0FBF1F0009000BF8B
:100BE0000098411E0091FAD20EE080E0C0F800802B
:100BF000FFF7B6FD074604E0FFF7B2FDC01B022871
:100C000075D8686A8007F7D42078400760D5E8690E
:100C10000027C00008D4E86940F08050E861E86926
:100C2000012700F0805000905C480168C90513D48A
:100C30000168834641F480710160FFF791FD8246AF
:100C400006E000BFFFF78CFDA0EB0A0064284ED839
:100C5000DBF80000C005F5D5E06801280AD008B12E
:100C6000052813D0286A20F001002862286A20F0A5
:100C7000040002E0286A40F001002862E06841F2C6
:100C8000883B98B1FFF76CFD82460BE0286A40F084
:100C900004002862EEE700BFFFF762FDA0EB0A0147
:100CA00059455AD8286A8007F6D50CE0FFF758FD59
:100CB000824605E0FFF754FDA0EB0A0159454CD8E8
:100CC000286A8007F6D41FB1E86920F08050E861F7
:100CD000E06988B36968C1F38101022944D0022820
:100CE000C6F8608004D0FFF73BFD044638E034E0EE
:100CF000FFF736FD074604E0FFF732FDC01B022870
:100D00002BD828688001F7D4206AB0F5803F05D140
:100D10006868A16820F4003008436860D4E90801DD
:100D20000843696821F4741108436860C6F860904C
:100D3000FFF716FD044606E025E000BFFFF710FDB3
:100D4000001B022809D828688001F7D51BE000BFE6
:100D5000FFF706FD001B022802D90320BDE8F88F2B
:100D600028688001F4D40EE00128F7D06868226A70
:100D700000F48031914204D1616A00F4701088421D
:100D800001D00120EAE70020E8E70000001002405F
:100D900000004242800442422C00002000700040CB
:100DA00010B5401EB0F1807F01D3012010BD4FF07F
:100DB000E02460610F21601700F0CBFD0020A061EE
:100DC00007202061002010BD7047704770B590F873
:100DD0003C20012A26D0012480F83C40022280F8E1
:100DE0003D2003685A689D6822F070060A68324305
:100DF0005A600D4B02689A4208D0B2F1804F05D07C
:100E00000A4B9A4202D00A4B9A4204D1496825F013
:100E100080031943916080F83D40002180F83C1028
:100E2000084670BD022070BD002C01400004004047
:100E30000008004010B5040003D094F83D0010B144
:100E400007E0012010BD002084F83C00204600F09F
:100E50001FF8022084F83D00211D206800F00EFCE0
:100E6000012084F8460084F83E0084F83F0084F8AE
:100E7000400084F8410084F8420084F8430084F87C
:100E8000440084F8450084F83D00002010BD0000B7
:100E900038B505460068B0F1804F2AD11548C169C0
:100EA00041F00101C161C069144C00F001000090E3
:100EB000114820601020606000208021C4E90201F8
:100EC000490021618900C4E90510C800E06120469D
:100ED000FFF722FB08B1FFF76EFA6C6200220521D2
:100EE0001C206562FFF7AEFCBDE838401C20FFF710
:100EF0009BBC38BD00100240580002402C0300206B
:100F000070B5044690F83C00012817D0012584F8FC
:100F10003C50022084F83D002068826822F077026D
:100F200022F47F4282600868502830D00DDC2028EF
:100F30004DD005DC98B310283BD148E0022070BDAD
:100F4000302844D0402834D139E0602828D0702897
:100F500006D0B0F5805F2CD0B0F5005F29D10AE053
:100F6000CB68D1E90121206800F0BEFB20688168D0
:100F700041F0770109E0CB68D1E90121206800F058
:100F8000B3FB2068816841F48041816011E0CA6848
:100F90004968206800F05CFC5021206807E016E0FA
:100FA000CA684968206800F064FC6021206800F08D
:100FB000A5FB84F83D50002084F83C0070BDCA6851
:100FC0004968206800F044FC40212068EFE722686F
:100FD00001461046EBE7704770B5044600680169AA
:100FE0004FF00005C943890715D4C168C943890773
:100FF00011D4E91E016101202077206880698007F3
:10100000204602D0FFF7E7FF04E000F0BDF82046DD
:1010100000F04CF9257720680169C943490717D4C6
:10102000C168C943490713D46FF00401016102206C
:1010300020772068806910F4407F204602D0FFF7B7
:10104000CAFF04E000F0A0F8204600F02FF9257751
:1010500020680169C943090716D4C168C943090753
:1010600012D46FF008010161042020772068C06964
:101070008007204602D0FFF7AEFF04E000F084F8BE
:10108000204600F013F9257720680169C943C90695
:1010900017D4C168C943C90613D46FF010010161A8
:1010A000082020772068C06910F4407F204602D0D5
:1010B000FFF791FF04E000F067F8204600F0F6F833
:1010C000257720680169C943C90708D1C168C943A8
:1010D000C90704D1891E0161204600F0E8F82068A4
:1010E0000169C943090609D4C168C943090605D481
:1010F0006FF0800101612046FFF766FE20680169FC
:10110000C943490609D4C168C943490605D46FF0EB
:1011100040010161204600F0CBF820680169C94315
:1011200089060BD4C168C943890607D46FF0200132
:1011300001612046BDE87040FFF747BE70BD00006A
:1011400000B585B0002100910191029103910068E2
:10115000B0F1804F11D10A48816941F004018161E9
:101160008069694600F0040004900120009002208C
:10117000019003900348FFF7FDF905B000BD0000A2
:101180000010024000080140704770B5044690F816
:101190003C000D4601280AD0012084F83C0042B1F1
:1011A000042A18D0082A2AD00C2A4DD139E002206E
:1011B00070BD206800F0AAFA2068816941F008013A
:1011C00081612068816921F0040181612068816961
:1011D0002A69114311E0206800F0C0FA2068816993
:1011E00041F4006181612068816921F4806181613D
:1011F000206881692A6941EA0221816124E020682E
:1012000000F0D8FA2068C16941F00801C161206886
:10121000C16921F00401C1612068C1692A691143D3
:1012200011E0206800F0F2FA2068C16941F4006121
:10123000C1612068C16921F48061C1612068C16910
:101240002A6941EA0221C161002084F83C0070BD96
:1012500010B5040003D094F83D0010B107E0012060
:1012600010BD002084F83C00204600F01EF802204B
:1012700084F83D00211D206800F000FA012084F868
:10128000460084F83E0084F83F0084F8400084F86B
:10129000410084F8420084F8430084F8440084F854
:1012A000450084F83D00002010BD7047704770472E
:1012B000704770B5040004D094F83D00002510B1CB
:1012C00006E0012070BD84F83C50204600F022F872
:1012D000242084F83D002068C16821F40051C160D9
:1012E000204600F0D9FA2068016921F4904101619B
:1012F0002068416921F02A0141612068C16841F4F8
:101300000051C1602564202084F83D0084F83E002F
:10131000002070BD30B585B0002400940194029483
:10132000039400681449884224D11448816941F427
:1013300080418161816901F480410491816941F0BA
:101340000401816180690E4D00F0040004904FF4A7
:101350000070009002200190032003906946284607
:10136000FFF708F92815CDE90004694628460294DC
:10137000FFF700F905B030BD003801400010024011
:1013800000080140FEE7012000F00AFBFBE7000037
:10139000094808B5416941F00101416140690022F5
:1013A00000F00100009005210F20FFF74BFABDE887
:1013B00008400F20FFF738BA0010024010B5B8B04F
:1013C0001C2237496846FEF74BFF0021684600F0B3
:1013D000F3FA344C32491C2220601C3107A8FEF776
:1013E0003FFF002107A800F0E7FA2D4960601C22AA
:1013F00038310EA8FEF734FF00210EA800F0DCFA09
:101400002749A0601C22543115A8FEF729FF0021AE
:1014100015A800F0D1FA2249E0601C2270311CA806
:10142000FEF71EFF00211CA800F0C6FA1C4920612F
:101430001C228C3123A8FEF713FF002123A800F003
:10144000BBFA174960611C22A8312AA8FEF708FFE1
:1014500000212AA800F0B0FA1149A0611C22C43171
:1014600031A8FEF7FDFE002131A800F0A5FAE061E9
:10147000606800F00BFEA06800F008FEE06800F075
:1014800005FE206900F002FE606900F0FFFDA06922
:1014900000F0FCFDE06900F0F9FD38B010BD00007F
:1014A000E02400080000002070B586B00024184831
:1014B0000094019402940394816941F010018161C8
:1014C000816901F010010491816941F0200181617D
:1014D000816901F020010491816941F00401816179
:1014E00080690C4E00F004004FF400550490002277
:1014F00029463046FFF72EF901200095CDE9010479
:101500000220039069463046FFF734F806B070BDFC
:10151000001002400010014010B58EB00024079466
:10152000089409940A940B941C2168460C94FEF7C5
:10153000C9FE1D484FF08041C0E900145921C0E99F
:10154000024104618461FFF775FC08B1FEF733FFC7
:101550004FF48050079007A91348FFF7D1FC08B15A
:10156000FEF729FF1048FFF773FE08B1FEF723FFCF
:101570000B940BA90C480C94FFF728FC08B1FEF75C
:101580001AFF6020CDE90004029400226946064853
:101590000494FFF7FAFD08B1FEF70DFF0248FFF7CC
:1015A000CFFD0EB010BD0000E40200200C4810B5C5
:1015B0000A4901604FF4E1314160002181600C2251
:1015C000C160C0E904128161C161FFF772FE0028A9
:1015D00003D0BDE81040FEF7EEBE10BD003801405C
:1015E00070030020012000F0DBF9FBE7FEE7FEE7D7
:1015F000012000F0D5F9FBE710B5FFF7B7F800F0D0
:101600009BFE012803D0BDE8104000F027BE10BDAE
:1016100030B58FB028216846FEF754FE14210AA881
:10162000FEF750FE01210804CDE9001000240294C9
:1016300002250491CDE907504FF4E0100990684667
:10164000FFF71EFA08B172B6FEE70F20CDE90A05D2
:101650004FF48060CDE90C4002210AA80E94FFF7F8
:1016600023F9002801D072B6FEE70FB030BD7047F5
:101670000148FFF7B1BC0000E4020020F0B50268A9
:10168000164B174C174D4FF08047984205D0B84283
:1016900003D0A04201D0A84203D122F070064A68CC
:1016A0003243984205D0B84203D0A04201D0A842AC
:1016B00003D122F44074CA6822434C6922F08002AC
:1016C000224302608A68C2620A688262984201D13B
:1016D0000969016301214161F0BD0000002C014056
:1016E000000400400008004010B5846842EA03226C
:1016F00024F47F440A432243826010BD826822F0B2
:1017000070020A4342F007018160704730B5026AF7
:1017100022F001020262026A4368846924F07305C0
:101720000C682C4322F002058A682A430A4DA8421D
:101730000BD122F00805CA6823F440732A434D698F
:1017400022F004021D438B692B4343608461496886
:101750004163026230BD0000002C014030B5026AD6
:1017600022F010020262026A436884690D6824F460
:10177000E64444EA05248D6822F0200242EA05127C
:101780000B4DA8420ED1CD6822F0800242EA05122C
:101790004D6923F4406343EA85038D6922F04002DA
:1017A00043EA85034360846149688163026230BD16
:1017B000002C014030B5026A22F480720262036A92
:1017C0004268C46923F4007324F073050C682C4349
:1017D0008D6843EA05230C4DA8420ED1CD6823F451
:1017E000006343EA05234D6922F4405242EA0512A0
:1017F0008D6923F4806342EA05124260C46149683E
:10180000C163036230BD0000002C014030B5026AA4
:1018100022F480520262046A4268C3690D6823F4AC
:10182000E64343EA05238D6824F4005444EA053472
:10183000064DA84204D14D6922F4804242EA851245
:101840004260C36149680164046230BD002C0140FC
:1018500010B5036A046A24F001040462846924F068
:10186000F00444EA021423F00A020A43846102628B
:1018700010BD10B5036A23F0100303628369046A84
:1018800023F4704343EA023224F0A00343EA011137
:101890008261016210BD000070B5044600680169F4
:1018A000E26821F44051114301612169A0680843B5
:1018B000616908432168CA6841F20C639A43024394
:1018C000CA6020684169A26921F4407111434161F5
:1018D0001E492068884202D1FFF78CF801E0FFF72B
:1018E00079F800EBC00101EB001260686421800010
:1018F000B2FBF0F3B3FBF1F36FF018067343B2FBE6
:10190000F0F5B2FBF0F605EB8305322303EB05158A
:10191000B5FBF1F5B6FBF1F605F0F00505EB0615A4
:10192000B2FBF0F6B2FBF0F0B0FBF1F06FF0180292
:10193000504306EB800003EB0010B0FBF1F0216890
:1019400000F00F002844886070BD0000003801409E
:10195000FEE70907090E002804DB00F1E02080F80B
:101960000014704700F00F0000F1E02080F8141D13
:101970007047FEF703FFFFF74BFEFFF795FDFFF7FC
:1019800007FDFFF7C9FDFFF711FEFFF717FD00F098
:101990000EF8FEE701460020842900D0C81C7047DD
:1019A00010B500B9012000F015FB002010BD10B5E6
:1019B00000F036FB002010BD7FB50D46044641699E
:1019C000B0F9080081B1A16971B1FFF7E3FFD4E973
:1019D00005128DE80700D4E900102B46226900F0BB
:1019E00080FC039004B070BDFFF7D4FF03A9CDE9DC
:1019F0000001208A2B4682B2D4E9001000F044FC9A
:101A0000012801D00020EDE70398EBE72DE9F04134
:101A1000184C0F46054666692068001D00F016FA4E
:101A200038B9206890F82C1001208840A1698143C2
:101A3000A161681C07D137B12168BDE8F0410E48AB
:101A4000091D00F047BA20683544B5424560216859
:101A500005D2A068BDE8F041091D00F023BA606816
:101A6000091D00F01FFA206B854200D22563BDE8F6
:101A7000F081000030000020900400202DE9F041AA
:101A8000054600F033FA2E4C2069401C2061206886
:101A90002C4F10B1E06940B32DE02560206901288A
:101AA00029D1002606EB860007EB800000F0ECF958
:101AB000761C072EF6D323488C3000F0E5F9214838
:101AC000A03000F0E1F91F48B43000F0DDF91D4806
:101AD000C83000F0D9F91B48DC3000F0D5F91948BE
:101AE0008C3060601430A06005E02068E96AC06A4C
:101AF000884200D82560E06A401CE062E96A012063
:101B0000A26988401043A06101EB810007EB8000CF
:101B1000291D00F0DFF900F009FAE06900280CD077
:101B20002068E96AC06A884207D207494FF08050AE
:101B30000860BFF34F8FBFF36F8FBDE8F0810000E7
:101B400030000020B403002004ED00E010B504468E
:101B500090F8510058B101280CD002280FD0502025
:101B600080F31188BFF34F8FBFF36F8FFEE7206BB9
:101B700000F0F0F92046BDE8104000F0EBB910BDD0
:101B800010484FF44061420706D0C01D0D4920F0B7
:101B90000700411AC1F540610B4A00230144C2E924
:101BA00000030839103A21F0070111604B600B6007
:101BB0000B1AC0E9001393604FF000405360D060EF
:101BC00070470000A40400207C000020144E154C37
:101BD000A6F1C8074FF08058DFF84C9012E000BF24
:101BE00000F084F9F068C568281D00F02FF920691D
:101BF000401E2061E068401EE06000F097F9284632
:101C0000FFF7A4FFE0680028EAD138680128F9D975
:101C1000C9F80080BFF34F8FBFF36F8FF2E700006A
:101C20007C0400203000002004ED00E02DE9F047A6
:101C30009A46DDE9098481466FF00303206B03EBCC
:101C400082021044089D20F00706700707D050203C
:101C500080F31188BFF34F8FBFF36F8FFEE7231818
:101C60000A5C83F834200A5C12B1401C1028F6D3B9
:101C7000002784F84370072D00D30625E562C4E9E8
:101C80001157201D00F00BF904F1180000F007F9BE
:101C90002461C5F107006462A061E76484F85070B4
:101CA00052464946304600F0BFF82060B8F1000FB8
:101CB00001D0C8F80040BDE8F087000030B51149F8
:101CC00000E011460A688242FBD34B685C188442EC
:101CD00003D1406818444860084643681C18944281
:101CE00009D1084C103C2468A24209D052681A4419
:101CF00042600A6812680260814200D0086030BD0C
:101D00000460F9E77C00002006484168096829B1B1
:101D10004168C968C9684968016370474FF0FF317D
:101D2000FAE700003000002008484068401C4FF0EF
:101D3000500080F3118804D0BFF34F8FBFF36F8F33
:101D4000FEE7BFF34F8FBFF36F8FFEE784000020E5
:101D50002DE9F0410546002700F0F6F9314E3068D4
:101D600008B9FFF70DFFF06805424BD1C5B3083540
:101D700068070ED005F00700C0F1080005446807A9
:101D800007D0502080F31188BFF34F8FBFF36F8FC0
:101D9000FEE72DB37068854234D8224810300146E2
:101DA0000C6801E020460C466168A94202D2216815
:101DB0000029F7D131688C4224D00768216801607E
:101DC00060680837411B10290FD96019420708D0F5
:101DD000502080F31188BFF34F8FBFF36F8FFEE762
:101DE00010E041606560FFF769FF61687068401A44
:101DF0007060B268904200D2B060F0680143002089
:101E0000C4E9000100F00AFB780707D0502080F3F6
:101E10001188BFF34F8FBFF36F8FFEE73846BDE8E1
:101E2000F08100006C00002010B5031F4FF080749B
:101E30001C601B1F21F001011960191F024B0B6070
:101E4000143940380A6010BD291D0008D0E901325C
:101E500001699A60D0E901235A604A68824201D13F
:101E600082684A60002202610868401E08600868B3
:101E700070470000034B036003F1540008608020AA
:101E8000106070479000002000F108014FF0FF3211
:101E9000C0E90112C16001610021016070470021A9
:101EA0000161704730B50B685A1C02D000F108027E
:101EB00002E0026904E02246546825689D42FAD98E
:101EC00053684B6099608A60516008610168491CE1
:101ED000016030BD42684A6093688B6093685960C6
:101EE000916008610168491C01607047502080F3CF
:101EF0001188BFF34F8FBFF36F8F0A494868401CAA
:101F0000486001280CD10848006810F0FF0F07D086
:101F1000502080F31188BFF34F8FBFF36F8FFEE720
:101F2000704700008400002004ED00E00849486884
:101F300028B1401E486001D180F3118870475020BD
:101F400080F31188BFF34F8FBFF36F8FFEE7000060
:101F50008400002070B5002827D0144DA0F108049B
:101F60006168E868014207D1502080F31188BFF30F
:101F70004F8FBFF36F8FFEE722683AB1502080F396
:101F80001188BFF34F8FBFF36F8FFEE7814361600E
:101F900000F0DAF860686968084468602046FFF776
:101FA0008DFEBDE8704000F039BA70BD6C000020B5
:101FB0004FF0E02000210161816105494FF47A7200
:101FC0000968B1FBF2F1491E4161072101617047C7
:101FD0002C00002010B5020014D00F48806B38B1DF
:101FE000502080F31188BFF34F8FBFF36F8FFEE750
:101FF00000F0AAF800211046FFF708FD00F00EFAE5
:10200000002807D105494FF080500860BFF34F8F7B
:10201000BFF36F8F10BD00003000002004ED00E022
:1020200010B586B00024039405AA04A903A804945B
:10203000FFF720FFDDE903010094CDE90110002343
:102040000EA11048059A00F04CF90F49002848638A
:1020500011D0502080F31188BFF34F8FBFF36F8FE3
:102060004FF0FF3008630120C8614C6106B0BDE845
:10207000104000F09FB806B010BD000049444C4528
:1020800000000000CD1B00083000002070B50446A1
:10209000FFF72CFF294D04B92C68201DFFF7D6FE51
:1020A00058B9E06A264A00EB800152F8211021B9A4
:1020B00001218140A8698843A861A06A18B104F190
:1020C0001800FFF7C3FE1E48211DDC30FFF702FF9A
:1020D00094F850000026012801D184F85060FFF7E1
:1020E00025FFE86928B1FFF701FFFFF70DFEFFF7B5
:1020F0001DFF2868844213D1E86990B1A86B38B1FC
:10210000502080F31188BFF34F8FBFF36F8FFEE72E
:102110000C494FF080500860BFF34F8FBFF36F8FB3
:1021200070BD0748DC3000682969884201D12E6003
:1021300070BDBDE8704000F00FB800003000002016
:10214000B403002004ED00E00248816B491C816368
:1021500070470000300000201448816B11B101214C
:1021600041627047002141628169B1FA81F1C1F198
:102170001F0101EB81020E4951F822306BB101EBD6
:10218000820101F108034A6852684A609A4201D10B
:1021900052684A60D16801607047502080F311880E
:1021A000BFF34F8FBFF36F8FFEE7000030000020BA
:1021B000B40300201CB5264908780190FF20087060
:1021C00008788DF800009DF800009DF8002000F0D0
:1021D000F000904207D0502080F31188BFF34F8F5A
:1021E000BFF36F8FFEE79DF800001A4B00F0500020
:1021F00018700720986005E09DF8002052008DF8C7
:102200000020401E9DF800201206F5D49860032897
:1022100007D0502080F31188BFF34F8FBFF36F8F2B
:10222000FEE74FF440709860019808700A48016812
:1022300041F470010160016841F070410160FFF7F5
:10224000B7FE00205860FDF7B1FF00201CBD000064
:1022500000E400E08400002020ED00E010B55020F4
:1022600080F31188BFF34F8FBFF36F8F00F072F8C8
:1022700018B104494FF080500860002080F31188A5
:1022800010BD000004ED00E02DE9FF5F8346DDE9AD
:102290000E87994616468A469000FFF759FD0500BD
:1022A0001CD05420FFF754FD040014D000202563F7
:1022B00084F85100CDE90240CDE900874B46324613
:1022C00051465846FFF7B2FC2046FFF7D7FB0120E6
:1022D00004B0BDE8F09F2846FFF73CFE4FF0FF300A
:1022E000F6E7F0B585B0DDE90B640A9DA6B1DCB177
:1022F000542700972663022684F85160002604AF15
:10230000CDE90246CDE90057FFF790FC2046FFF7E4
:10231000B5FB049805B0F0BD502080F31188BFF3E1
:102320004F8FBFF36F8FFEE7502080F31188BFF30C
:102330004F8FBFF36F8FFEE70548C16919B1806BFE
:1023400018B100207047012070470220704700003C
:10235000300000202DE9F0412E4C0027A06B40B149
:10236000206A401C2062606A00B101273846BDE83F
:10237000F0816669761C666113D16068006838B1C7
:10238000502080F31188BFF34F8FBFF36F8FFEE7AC
:102390006068A1686160A060A06A401CA062FFF74D
:1023A000B3FC206BDFF87080864209D36068006858
:1023B00080B16068C068C568686886420DD22063D5
:1023C0002068C06A00EB800158F821000128CAD9B2
:1023D0000127C8E74FF0FF30F1E7281DFFF736FD72
:1023E000A86A18B105F11800FFF730FDE86A01216D
:1023F000A26981401143A16100EB800108EB8100DB
:10240000291DFFF767FDE86A2168C96A8842CDD3B4
:102410000127CBE730000020B40300202DE9F0476E
:102420002C4D00242746A86B38B1FFF75FFDA86B41
:10243000401EA863A86B40B146E0502080F311888D
:10244000BFF34F8FBFF36F8FFEE72969224E012044
:10245000D1B3A6F1B40980463068E8B1F068C46829
:1024600004F11800FFF7F2FC201DFFF7EFFCE06A13
:10247000AA6908FA00F11143A96100EB800109EB98
:102480008100211DFFF726FDE06A2968C96A88429C
:10249000E2D3C5F82480DFE70CB1FFF735FC2C6AE6
:1024A00044B14646FFF756FF00B16E62641EF9D193
:1024B00000202862686A38B1084901273807086097
:1024C000BFF34F8FBFF36F8FFFF730FD3846BDE886
:1024D000F0870000300000206804002004ED00E0D8
:1024E000F4250008E51500080000000000000000C9
:1024F000800000000000000000000000E42500084B
:1025000099030008FDFF00000000000080000000AB
:1025100000000000000000002826000887130008C3
:10252000FDFF00000000000080000000000000002F
:10253000000000001C26000887030008FDFF0000C3
:10254000000000008000000000000000000000000B
:1025500000260008A1030008FDFF000000000000A5
:10256000800000000000000000000000D8250008E6
:10257000F1150008FDFF00000000000080000000D1
:10258000000000000000000034260008BB03000823
:10259000FDFF0000000000008000000000000000BF
:1025A000000000000C2600088F030008FDFF00005B
:1025B000000000008000000000000000000000009B
:1025C00000000000000000000102030406070809E3
:1025D00000000000010203045061747465726E4DC6
:1025E0006F76650043697263756C617252696E67DC
:1025F000000000004D61696E5461736B00000000C3
:10260000436F6C6F72576865656C0000416C746550
:10261000726E617465436F6C6F727300416C6C43D2
:102620006F6C6F727300000048656172744265617F
:102630007400000046756C6C456D70747900000084
:10264000602600080000002090000000280100081B
:10265000F0260008900000207816000044010008D1
:10266000000000000000000000000000000000006A
:10267000000000000000000000000000000000005A
:102680000100000010000000000000000024F40021
:10269000000000000000000000000000000000003A
:1026A000000000000000000000000000000000002A
:1026B000000000000000000000000000000000001A
:1026C000000000000000000000000000000000000A
:1026D00000000000000000000000000000000000FA
:1026E0000000000000000000AAAAAAAA0000000042
:04000005080000ED02
:00000001FF
